:100000000C9435010C9466010C9466010C94660105
:100010000C9466010C9466010C9466010C946601C4
:100020000C9466010C9466010C9466010C946601B4
:100030000C9466010C9466010C9466010C946601A4
:100040000C9466010C9466010C9466010C94660194
:100050000C9466010C9466010C9466010C942504C2
:100060000C9466010C9499040C946F040C94660132
:100070000C9466010C9466010C9466010C94660164
:100080000C9466010C9466010C9466010C94660154
:100090000C9466010C9466010C9466010C94660144
:1000A0000C9466010C9466010C9466010C94660134
:1000B0000C9466010C9466010C9466010C94660124
:1000C0000C9466010C9466010C9466010C94660114
:1000D0000C9466010C9466010C9466010C94660104
:1000E0000C9466010C94A5010C949B010C94A7023E
:1000F0000C94BD010C9498010C94C1010C94ED0278
:100100000C948C010C94AF010C94C6010C94B301B7
:100110000C943A030C94B5020C94AB010C9493022A
:100120000C94B9010C94A1010C94C7010C948402A5
:100130000C94CB010C9494010C94B1060C94900196
:100140000C9457020C948601000021002400270023
:100150002A002D00300033000101000004010701D6
:100160000A0100002200250028002B002E0031008B
:10017000340002010000050108010B01000020000D
:100180002300260029002C002F003200000100006F
:10019000030106010901050505050705080808080A
:1001A000020202020A0A080804040404010101010F
:1001B000010101010303030303030303040707070A
:1001C0000C0C0C0C0C0C0C0C0202020206060606AF
:1001D000060606060B0B0B0B0B0B0B0B010210207C
:1001E000200808102040102040800201020108046D
:1001F0000201010204081020408080402010080401
:100200000201800402018040201008040201080459
:10021000020101020408102040800102040810209D
:10022000408000000A0B02090C0D0E0807030401B0
:1002300000000000000000000000000000000000BE
:10024000000000000000000000000000000012118B
:10025000100000000000000000000000000000008E
:100260000000000000000000B10611241FBECFEF07
:10027000D1E2DEBFCDBF00E00CBF12E0A0E0B2E0F3
:10028000E4E1FEE000E00BBF02C007900D92AE3942
:10029000B107D9F723E0AEE9B2E001C01D92A03565
:1002A000B207E1F711E0C5E3D1E000E006C0219715
:1002B0000109802FFE010E940007C433D10780E0AE
:1002C0000807A9F70E94CF040C9408070C940000BB
:1002D0008150823108F05AC0E82FF0E08827EC58AE
:1002E000FE4F8F4F0C9400079401980186018C01FA
:1002F0009001C6019B01A101A501AB01AF01B301B2
:10030000B901BD01C601C101C701CB0180918000C7
:100310008F77809380000895809180008F7DF9CF42
:1003200080918000877FF5CF84B58F7784BD089555
:1003300084B58F7DFBCF8091B0008F778093B00024
:1003400008958091B0008F7DF9CF809190008F77D4
:10035000809390000895809190008F7DF9CF8091D7
:100360009000877FF5CF8091A0008F778093A000C9
:1003700008958091A0008F7DF9CF8091A000877FA4
:10038000F5CF809120018F7780932001089580918F
:1003900020018F7DF9CF80912001877FF5CFCF930A
:1003A000DF93282F30E0F901EE5DFD4F8491F901D4
:1003B000E452FE4FD491F901EA56FE4FC491CC238A
:1003C000A1F081110E946801EC2FF0E0EE0FFF1FF9
:1003D000E458FE4FA591B491EC91ED2381E090E0BB
:1003E00009F480E0DF91CF91089580E090E0FACFAA
:1003F0001F93CF93DF93282F30E0F901EE5DFD4F7F
:100400008491F901E452FE4FD491F901EA56FE4F6E
:10041000C491CC23A9F0162F81110E946801EC2F02
:10042000F0E0EE0FFF1FEE59FE4FA591B4918FB78C
:10043000F894EC91111108C0D095DE23DC938FBFA6
:10044000DF91CF911F910895DE2BF8CFCF93DF93EB
:1004500090E0FC01E452FE4F24918A569E4FFC012D
:1004600084918823D1F090E0880F991FFC01E85B0C
:10047000FE4FA591B491FC01EE59FE4FC591D49168
:10048000623071F49FB7F8943C91822F809583235A
:100490008C93E8812E2B28839FBFDF91CF91089505
:1004A0008FB7F894EC912E2B2C938FBFF6CFAF9291
:1004B000BF92CF92DF92EF92FF920F931F93CF9351
:1004C000DF936C017B018B01040F151FEB015E01B3
:1004D000AE18BF08C017D10759F06991D601ED9148
:1004E000FC910190F081E02DC6011995892B79F7D7
:1004F000C501DF91CF911F910F91FF90EF90DF9099
:10050000CF90BF90AF900895FC01538D448D252F5F
:1005100030E0842F90E0821B930B541710F0CF969D
:10052000089501970895FC01918D828D981761F0CF
:10053000A28DAE0FBF2FB11D5D968C91928D9F5FE6
:100540009F73928F90E008958FEF9FEF0895FC01C5
:10055000918D828D981731F0828DE80FF11D858D78
:1005600090E008958FEF9FEF0895FC01918D228D0B
:10057000892F90E0805C9F4F821B91098F73992790
:10058000089583EB92E00E94B50221E0892B09F4E3
:1005900020E0822F0895FC01A48DA80FB92FB11D72
:1005A000A35ABF4F2C91848D90E001968F739927A9
:1005B000848FA689B7892C93A089B1898C91837087
:1005C00080648C93938D848D981306C00288F38980
:1005D000E02D80818F7D80830895EF92FF920F93AD
:1005E0001F93CF93DF93EC0181E0888F9B8D8C8DDF
:1005F00098131AC0E889F989808185FF15C09FB7D3
:10060000F894EE89FF896083E889F9898081837095
:10061000806480839FBF81E090E0DF91CF911F9144
:100620000F91FF90EF900895F62E0B8D10E00F5F65
:100630001F4F0F731127E02E8C8D8E110CC00FB63B
:1006400007FCFACFE889F989808185FFF5CFCE01D3
:100650000E94CB02F1CFEB8DEC0FFD2FF11DE35A81
:10066000FF4FF0829FB7F8940B8FEA89FB89808156
:100670008062CFCFCF93DF93EC01888D8823B9F0D0
:10068000AA89BB89E889F9898C9185FD03C080819D
:1006900086FD0DC00FB607FCF7CF8C9185FFF2CF1A
:1006A000808185FFEDCFCE010E94CB02E9CFDF91A3
:1006B000CF91089580E090E0892B29F00E94C1023B
:1006C00081110E94000080E090E0892B49F080E0D9
:1006D00090E0892B29F00E94000081110E94000007
:1006E00080E090E0892B49F080E090E0892B29F0B0
:1006F0000E94000081110E94000080E090E0892BA0
:1007000049F080E090E0892B29F00E9400008111DF
:100710000C9400000895FC0101900020E9F7319746
:10072000AF01481B590BBC0183EB92E00C945702BC
:100730008F929F92AF92BF920F931F93CF93DF93AD
:10074000CDB7DEB7A1970FB6F894DEBF0FBECDBF11
:1007500019A2423008F44AE08E010F5D1F4F842E2B
:10076000912CB12CA12CA50194010E94DE06E62F4C
:10077000B901CA01EA30F4F4E05DD801EE938D01CD
:10078000232B242B252B79F790E080E0109719F08C
:10079000CD010E948B03A1960FB6F894DEBF0FBE69
:1007A000CDBFDF91CF911F910F91BF90AF909F90E0
:1007B0008F900895E95CE1CFCF92DF92EF92FF92A4
:1007C000CF93DF936B017C016DE283EB92E00E949B
:1007D000ED02EC0166277727CB016C197D098E09A4
:1007E0009F094AE00E9498038C0F9D1FDF91CF91D3
:1007F000FF90EF90DF90CF900895CF93DF930E940A
:100800008B03EC0188E192E00E948B038C0F9D1F0B
:10081000DF91CF91089561E082E00E94F80161E0EC
:1008200089E00E94F80161E08CE00E94F8018BE110
:1008300092E00C94FD03BC01990F880B990B97FD76
:100840000C94DC034AE00C9498031F920F920FB6AD
:100850000F9211242F933F938F939F93AF93BF9346
:100860008091AF029091B002A091B102B091B2021A
:100870003091AE0223E0230F2D3758F50196A11DCC
:10088000B11D2093AE028093AF029093B002A0936B
:10089000B102B093B2028091AA029091AB02A091F2
:1008A000AC02B091AD020196A11DB11D8093AA02C8
:1008B0009093AB02A093AC02B093AD02BF91AF9105
:1008C0009F918F913F912F910F900FBE0F901F908E
:1008D000189526E8230F0296A11DB11DD2CF1F92B5
:1008E0000F920FB60F9211240BB60F922F933F93D6
:1008F0004F935F936F937F938F939F93AF93BF9328
:10090000EF93FF9383EB92E00E94CB02FF91EF9174
:10091000BF91AF919F918F917F916F915F914F9117
:100920003F912F910F900BBE0F900FBE0F901F9015
:1009300018951F920F920FB60F9211240BB60F92BB
:100940002F938F939F93EF93FF93E091C302F091C6
:10095000C4028081E091C902F091CA0282FD1DC0EB
:1009600090818091CC028F5F8F732091CD0282178E
:1009700041F0E091CC02F0E0ED54FD4F958F809373
:10098000CC02FF91EF919F918F912F910F900BBE11
:100990000F900FBE0F901F9018958081F2CF789422
:1009A00084B5826084BD84B5816084BD85B5826074
:1009B00085BD85B5816085BD80916E008160809325
:1009C0006E0010928100809181008260809381008E
:1009D000809181008160809381008091800081609E
:1009E000809380008091B10084608093B1008091F9
:1009F000B00081608093B00080919100826080930C
:100A0000910080919100816080939100809190008D
:100A10008160809390008091A10082608093A1000A
:100A20008091A10081608093A1008091A0008160ED
:100A30008093A000809121018260809321018091A8
:100A40002101816080932101809120018160809348
:100A5000200180917A00846080937A0080917A00EE
:100A6000826080937A0080917A00816080937A001E
:100A700080917A00806880937A001092C100E091A2
:100A8000C302F091C40282E08083E091BF02F09142
:100A9000C0021082E091C102F091C2028FEC80830B
:100AA0001092CB02E091C702F091C80286E08083E9
:100AB000E091C502F091C602808180618083E0915F
:100AC000C502F091C602808188608083E091C502F2
:100AD000F091C602808180688083E091C502F09128
:100AE000C60280818F7D808361E082E00E942602C1
:100AF00061E089E00E94260261E08CE00E9426020B
:100B000062E084E00E94260262E085E00E94260204
:100B100062E086E00E94260285E0282E312C93E0D8
:100B2000892E912C22E0C22ED12C34E0A32EB12CA0
:100B30008FB7F8944090AF025090B0026090B1022D
:100B40007090B2028FBF8091A6029091A702A091EF
:100B5000A802B091A902A3019201281B390B4A0BEC
:100B60005B0BDA01C901C397A105B10508F494C074
:100B700084E00E94CF017C0185E00E94CF018C01BE
:100B800086E00E94CF01EC01809104029091050261
:100B9000E816F90679F48091020290910302081791
:100BA000190741F48091000290910102C817D907FA
:100BB00009F472C04092A6025092A7026092A80265
:100BC0007092A902F092A502E092A4021093A302EF
:100BD0000093A202D093A102C093A002E114F104F9
:100BE00009F05DC00130110509F090C0C130D10598
:100BF00009F0AEC0D0939F02C0939E0261E082E0F4
:100C00000E94F80160E089E00E94F80160E08CE059
:100C10000E94F80180E392E00E94FD038DE792E0DC
:100C20000E948B038091A4029091A5020E941B0454
:100C300089E892E00E948B038091A2029091A30226
:100C40000E941B048DE892E00E948B038091A00219
:100C50009091A1020E941B0481E992E00E948B0303
:100C600060919E0270919F02072E000C880B990BD9
:100C700097FF73C00E94DC0388E192E00E948B031F
:100C8000F0920502E0920402109303020093020224
:100C9000D0930102C09300020E945A0349CF31E071
:100CA000E316F10409F054C001151105B9F4C1307F
:100CB000D10509F04DC0D0929F02C0929E0260E023
:100CC00082E00E94F80161E089E00E94F80160E0A2
:100CD0008CE00E94F80183E492E09ECF0130110580
:100CE000B9F52097F9F490929F0280929E0260E0FD
:100CF00082E00E94F80160E089E00E94F80161E072
:100D00008CE00E94F80182E592E086CF0115110582
:100D1000F9F42097E9F4B0929F02A0929E020E94FB
:100D20000B047CCFC130D10599F410929F02109230
:100D30009E0260E082E00E94F80160E089E00E948B
:100D4000F80160E08CE00E94F80184E692E064CF54
:100D500030929F0220929E02E2CF4AE00E949803C6
:100D60008BCFE3EBF2E01382128288EE93E0A0E0F7
:100D7000B0E084839583A683B7838AE092E0918371
:100D8000808385EC90E09587848784EC90E097875A
:100D9000868780EC90E0918B808B81EC90E0938B48
:100DA000828B82EC90E0958B848B86EC90E0978B25
:100DB000868B118E128E138E148E0895A1E21A2E38
:100DC000AA1BBB1BFD010DC0AA1FBB1FEE1FFF1FEF
:100DD000A217B307E407F50720F0A21BB30BE40B3F
:100DE000F50B661F771F881F991F1A9469F7609586
:100DF0007095809590959B01AC01BD01CF01089540
:100E0000EE0FFF1F881F8BBF0790F691E02D1994FE
:040E1000F894FFCF84
:100E140001000100010000000000ED0257028402FD
:100E24003A03B5029302A7020D0A00546F646F736C
:100E3400206F73204C45447320616365736F7300A6
:100E44004C454420657371756572646F20616365F8
:100E5400736F004C4544206D65696F206163657351
:100E64006F004C4544206469726569746F20616346
:100E740065736F00546F646F73206F73204C454427
:100E840073206465736C696761646F7300426F7487
:100E9400C3B565733A20453D00204D3D0020443DD7
:0E0EA40000207C204F70C3A7C3A36F3A20002C
:00000001FF
