:100000000C9447010C9478010C9478010C947801BD
:100010000C9478010C9478010C9478010C9478017C
:100020000C9478010C9478010C9478010C9478016C
:100030000C9478010C9478010C9478010C9478015C
:100040000C9478010C9478010C9478010C9478014C
:100050000C9478010C9478010C9478010C94F803BA
:100060000C9478010C946C040C9442040C94780168
:100070000C9478010C9478010C9478010C9478011C
:100080000C9478010C9478010C9478010C9478010C
:100090000C9478010C9478010C9478010C947801FC
:1000A0000C9478010C9478010C9478010C947801EC
:1000B0000C9478010C9478010C9478010C947801DC
:1000C0000C9478010C9478010C9478010C947801CC
:1000D0000C9478010C9478010C9478010C947801BC
:1000E0000C9478010C94BD010C9466060C94710379
:1000F0000C94D9010C943F060C9480060C942506B0
:100100000C94A6010C94B7010C9498010C949E01D8
:100110000C94CA020C948E020C94B3010C94EF055B
:100120000C94D8010C94AA010C94BB020C94730695
:100130000C9459060C94A2010C94DD010C944C060D
:100140000C9424030C94DE020C94C1010C94C501A0
:100150000C94A5060C94CF010C94EC020C94AD0108
:100160000C94D3010C94CB010C94320600002100B6
:10017000240027002A002D00300033000101000078
:10018000040107010A0100002200250028002B00BD
:100190002E003100340002010000050108010B01AE
:1001A000000020002300260029002C002F00320030
:1001B0000001000003010601090105050505070509
:1001C00008080808020202020A0A080804040404D3
:1001D00001010101010101010303030303030303FF
:1001E000040707070C0C0C0C0C0C0C0C020202028E
:1001F00006060606060606060B0B0B0B0B0B0B0B77
:100200000102102020080810204010204080020128
:10021000020108040201010204081020408080400D
:10022000201008040201800402018040201008040C
:1002300002010804020101020408102040800102AA
:1002400004081020408000000A0B02090C0D0E0863
:10025000070304010000000000000000000000008F
:10026000000000000000000000000000000000008E
:10027000000012111000000000000000000000004B
:10028000000000000000000000000000A50611248E
:100290001FBECFEFD1E2DEBFCDBF00E00CBF13E049
:1002A000A0E0B2E0E8EBFDE000E00BBF02C0079089
:1002B0000D92A433B107D9F723E0A4E3B3E001C062
:1002C0001D92A03EB207E1F711E0C7E4D1E000E0E3
:1002D00006C021970109802FFE010E94D206C63474
:1002E000D10780E00807A9F70E94A2040C94DA065F
:1002F0000C9400008150823108F05AC0E82FF0E0E1
:100300008827EA57FE4F8F4F0C94D206A601AA0108
:1003100098019E01A201D801AD01B301B701BD0151
:10032000C101C501CB01CF01D801D301D901DD0144
:10033000809180008F778093800008958091800065
:100340008F7DF9CF80918000877FF5CF84B58F773F
:1003500084BD089584B58F7DFBCF8091B0008F77E9
:100360008093B00008958091B0008F7DF9CF809187
:1003700090008F77809390000895809190008F7DFA
:10038000F9CF80919000877FF5CF8091A0008F7783
:100390008093A00008958091A0008F7DF9CF809177
:1003A000A000877FF5CF809120018F778093200177
:1003B0000895809120018F7DF9CF80912001877F62
:1003C000F5CFCF93DF93282F30E0F901EA5BFD4FA3
:1003D0008491F901E050FE4FD491F901E654FE4FAB
:1003E000C491CC23A1F081110E947A01EC2FF0E09E
:1003F000EE0FFF1FE056FE4FA591B491EC91ED2357
:1004000081E090E009F480E0DF91CF91089580E0F1
:1004100090E0FACF1F93CF93DF93282F30E0F901BC
:10042000EA5BFD4F8491F901E050FE4FD491F90150
:10043000E654FE4FC491CC23A9F0162F81110E94DF
:100440007A01EC2FF0E0EE0FFF1FEA57FE4FA59167
:10045000B4918FB7F894EC91111108C0D095DE23B8
:10046000DC938FBFDF91CF911F910895DE2BF8CFE2
:10047000CF93DF9390E0FC01E050FE4F249186542F
:100480009E4FFC0184918823D1F090E0880F991F42
:10049000FC01E459FE4FA591B491FC01EA57FE4FCF
:1004A000C591D49161110EC09FB7F8948C91E22F41
:1004B000E0958E238C932881E223E8839FBFDF9110
:1004C000CF9108958FB7F894EC91E22BEC938FBF06
:1004D000F6CF3FB7F89480913F0390914003A091ED
:1004E0004103B091420326B5A89B05C02F3F19F0E8
:1004F0000196A11DB11D3FBFBA2FA92F982F8827A4
:10050000BC01CD01620F711D811D911D42E0660F7E
:10051000771F881F991F4A95D1F70895AF92BF9210
:10052000CF92DF92EF92FF920F931F93CF93DF93BF
:100530006C017B018B01040F151FEB015E01AE18EE
:10054000BF08C017D10759F06991D601ED91FC9110
:100550000190F081E02DC6011995892B79F7C5012D
:10056000DF91CF911F910F91FF90EF90DF90CF908F
:10057000BF90AF900895FC01538D448D252F30E03E
:10058000842F90E0821B930B541710F0CF960895A0
:1005900001970895FC01918D828D981761F0A28DCD
:1005A000AE0FBF2FB11D5D968C91928D9F5F9F7393
:1005B000928F90E008958FEF9FEF0895FC01918D49
:1005C000828D981731F0828DE80FF11D858D90E0B6
:1005D00008958FEF9FEF0895FC01918D228D892F53
:1005E00090E0805C9F4F821B91098F73992708953B
:1005F00083E493E00E94EC0221E0892B09F420E0DF
:10060000822F0895FC01A48DA80FB92FB11DA35A04
:10061000BF4F2C91848D90E001968F739927848F22
:10062000A689B7892C93A089B1898C918370806445
:100630008C93938D848D981306C00288F389E02DE6
:1006400080818F7D80830895EF92FF920F931F9397
:10065000CF93DF93EC0181E0888F9B8D8C8D981375
:100660001AC0E889F989808185FF15C09FB7F89481
:10067000EE89FF896083E889F989808183708064CD
:1006800080839FBF81E090E0DF91CF911F910F9118
:10069000FF90EF900895F62E0B8D10E00F5F1F4F27
:1006A0000F731127E02E8C8D8E110CC00FB607FC36
:1006B000FACFE889F989808185FFF5CFCE010E94C4
:1006C0000203F1CFEB8DEC0FFD2FF11DE35AFF4F2D
:1006D000F0829FB7F8940B8FEA89FB898081806252
:1006E000CFCFCF93DF93EC01888D8823B9F0AA890F
:1006F000BB89E889F9898C9185FD03C0808186FDDD
:100700000DC00FB607FCF7CF8C9185FFF2CF80812B
:1007100085FFEDCFCE010E940203E9CFDF91CF919B
:10072000089580E090E0892B29F00E94F802811161
:100730000E94000080E090E0892B49F080E090E08A
:10074000892B29F00E94000081110E94000080E0A6
:1007500090E0892B49F080E090E0892B29F00E94FD
:10076000000081110E94000080E090E0892B49F098
:1007700080E090E0892B29F00E94000081110C9408
:10078000000008951F93CF93DF93162FD42FC22F0D
:10079000682F88E00E940A02612F89E00E940A0205
:1007A0006D2F8AE00E940A026C2F8BE0DF91CF91BF
:1007B0001F910C940A02CF93DF93FC01019000205B
:1007C000E9F73197AF01481B590BBC0183E493E073
:1007D0000E948E02EC0142E050E064E172E083E4AA
:1007E00093E00E948E028C0F9D1FDF91CF910895A0
:1007F0001F920F920FB60F9211242F933F938F9356
:100800009F93AF93BF9380913B0390913C03A09142
:100810003D03B0913E0330913A0323E0230F2D377F
:1008200058F50196A11DB11D20933A0380933B0317
:1008300090933C03A0933D03B0933E0380913F030C
:1008400090914003A0914103B09142030196A11DF4
:10085000B11D80933F0390934003A0934103B09355
:100860004203BF91AF919F918F913F912F910F9034
:100870000FBE0F901F90189526E8230F0296A11D1A
:10088000B11DD2CF1F920F920FB60F9211240BB64B
:100890000F922F933F934F935F936F937F938F9319
:1008A0009F93AF93BF93EF93FF9383E493E00E94F2
:1008B0000203FF91EF91BF91AF919F918F917F9133
:1008C0006F915F914F913F912F910F900BBE0F90C1
:1008D0000FBE0F901F9018951F920F920FB60F9298
:1008E00011240BB60F922F938F939F93EF93FF9347
:1008F000E0915303F09154038081E0915903F0910A
:100900005A0382FD1DC0908180915C038F5F8F73BD
:1009100020915D03821741F0E0915C03F0E0ED5B14
:10092000FC4F958F80935C03FF91EF919F918F9186
:100930002F910F900BBE0F900FBE0F901F90189528
:100940008081F2CF789484B5826084BD84B5816063
:1009500084BD85B5826085BD85B5816085BD80918A
:100960006E00816080936E00109281008091810002
:1009700082608093810080918100816080938100FA
:10098000809180008160809380008091B1008460BC
:100990008093B1008091B00081608093B00080911D
:1009A000910082608093910080919100816080939A
:1009B0009100809190008160809390008091A100CF
:1009C00082608093A1008091A10081608093A1004A
:1009D0008091A00081608093A000809121018260BD
:1009E0008093210180912101816080932101809178
:1009F000200181608093200180917A00846080933F
:100A00007A0080917A00826080937A0080917A00E7
:100A1000816080937A0080917A00806880937A0068
:100A20001092C100E0915303F091540382E080835F
:100A3000E0914F03F09150031082E0915103F09147
:100A400052038FEC808310925B03E0915703F09187
:100A5000580386E08083E0915503F091560380812E
:100A600080618083E0915503F09156038081886016
:100A70008083E0915503F0915603808180688083E4
:100A8000E0915503F091560380818F7D808361E072
:100A900088E00E94380261E089E00E94380261E04B
:100AA0008AE00E94380261E08BE00E94380260E038
:100AB00082E00E94380260E083E00E94380260E039
:100AC00084E00E94380260E085E00E94380287E1FD
:100AD00092E00E94DB0382E00E94E1017C01C1E020
:100AE000D0E0892B11F0D0E0C0E0D0933903C0935F
:100AF000380383E00E94E1018C01AA24A394B12C65
:100B0000892B11F0B12CA12CB0923703A09236039F
:100B100084E00E94E1016C0188248394912CC1142B
:100B2000D10411F0912C812C9092350380923403E2
:100B300085E00E94E101FE01EA0DFB1DE80DF91DB3
:100B400021E030E0009711F030E020E0E20FF31FE9
:100B5000309739F133971CF5EF2859F4E5E0F0E0D0
:100B6000012BF9F0E7E0F0E0CD28D9F0E1E0F0E08A
:100B700018C00115110509F0DDC0E6E0F0E0892B91
:100B800081F0CD2829F008C0E8E0F0E0892B49F099
:100B9000E3E0F0E0012B29F4E2E0F0E002C0E9E05C
:100BA000F0E080910002909101028E179F0729F1D9
:100BB000F0930102E0930002E930F10508F0ADC0C6
:100BC0008827EA51FA4F8F4F0C94D206EF0525067D
:100BD00032063F064C06590666067306800630E06C
:100BE00020E050E040E070E060E090E080E00E94B3
:100BF000C20380E392E00E94DB030E9469024B0182
:100C00005C0188EEC82E83E0D82EE12CF12C0E94E6
:100C10006902681979098A099B09683E7340810550
:100C20009105A8F321E0C21AD108E108F10888EE85
:100C3000880E83E0981EA11CB11CC114D104E104EC
:100C4000F10429F70E94910346CF30E020E050E004
:100C500040E070E060E081E090E00E94C2038AE43E
:100C600092E0C9CF30E020E050E040E061E070E089
:100C700090E080E00E94C20386E692E0BCCF30E0C4
:100C800020E041E050E070E060E090E080E00E9411
:100C9000C2038EE792E0AFCF21E030E050E040E0C9
:100CA00070E060E090E080E00E94C20387E992E09B
:100CB000A2CF30E020E050E040E061E070E081E071
:100CC00090E00E94C20382EB92E095CF21E030E0F9
:100CD00050E040E061E070E090E080E00E94C203FC
:100CE0008DEC92E088CF30E020E041E050E070E011
:100CF00060E081E090E00E94C20387EE92E07BCF4B
:100D000021E030E041E050E070E060E090E080E021
:100D10000E94C20382E093E06ECF30E020E050E01A
:100D200040E070E060E090E080E00E94C2038CE16F
:100D300093E061CFCD2809F427CFE4E0F0E0892BE0
:100D400009F42FCFF0E0E0E02CCFE3E4F3E01382EE
:100D5000128288EE93E0A0E0B0E084839583A683BE
:100D6000B78386E092E09183808385EC90E095875D
:100D7000848784EC90E09787868780EC90E0918B65
:100D8000808B81EC90E0938B828B82EC90E0958B52
:100D9000848B86EC90E0978B868B118E128E138E4F
:100DA000148E0895EE0FFF1F881F8BBF0790F691DA
:080DB000E02D1994F894FFCF27
:100DB800FFFF0000000024038E02BB027103EC0257
:100DC800CA02DE020D0A003D3D3D20536973746579
:100DD8006D6120496E69636961646F203D3D3D0026
:100DE8004E656E68756D20626F74C3A36F20707254
:100DF800657373696F6E61646F00426F74C3A36F2C
:100E080020455351554552444120707265737369AA
:100E18006F6E61646F00426F74C3A36F2043494DC6
:100E280041207072657373696F6E61646F00426F01
:100E380074C3A36F20424149584F20707265737381
:100E4800696F6E61646F00426F74C3A36F20444979
:100E58005245495441207072657373696F6E6164BD
:100E68006F00446961676F6E616C2053555045523D
:100E7800494F5220455351554552444100446961F8
:100E8800676F6E616C205355504552494F5220444C
:100E980049524549544100446961676F6E616C204D
:100EA800494E464552494F522045535155455244A3
:100EB8004100446961676F6E616C20494E46455236
:100EC800494F522044495245495441004572726F76
:100ED8003A206F70C3A7C3A36F20696E76C3A16C55
:040EE80069646100D8
:00000001FF
