:100000000C9435010C9466010C9466010C94660105
:100010000C9466010C9466010C9466010C946601C4
:100020000C9466010C9466010C9466010C946601B4
:100030000C9466010C9466010C9466010C946601A4
:100040000C9466010C9466010C9466010C94660194
:100050000C9466010C9466010C9466010C94B00338
:100060000C9466010C9424040C94FA030C9466011D
:100070000C9466010C9466010C9466010C94660164
:100080000C9466010C9466010C9466010C94660154
:100090000C9466010C9466010C9466010C94660144
:1000A0000C9466010C9466010C9466010C94660134
:1000B0000C9466010C9466010C9466010C94660124
:1000C0000C9466010C9466010C9466010C94660114
:1000D0000C9466010C9466010C9466010C94660104
:1000E0000C9466010C94B8020C945F030C94CB0141
:1000F0000C9490010C948C010C947C020C94B30130
:100100000C94C7010C94C1010C9486010C94A902B3
:100110000C94DA020C9412030C94CC020C94AB01F4
:100120000C949B010C9494010C94C6010C949405BE
:100130000C9498010C94B9010C94AF010C94A50196
:100140000C94A1010C94BD010000210024002700A3
:100150002A002D00300033000101000004010701D6
:100160000A0100002200250028002B002E0031008B
:10017000340002010000050108010B01000020000D
:100180002300260029002C002F003200000100006F
:10019000030106010901050505050705080808080A
:1001A000020202020A0A080804040404010101010F
:1001B000010101010303030303030303040707070A
:1001C0000C0C0C0C0C0C0C0C0202020206060606AF
:1001D000060606060B0B0B0B0B0B0B0B010210207C
:1001E000200808102040102040800201020108046D
:1001F0000201010204081020408080402010080401
:100200000201800402018040201008040201080459
:10021000020101020408102040800102040810209D
:10022000408000000A0B02090C0D0E0807030401B0
:1002300000000000000000000000000000000000BE
:10024000000000000000000000000000000012118B
:10025000100000000000000000000000000000008E
:100260000000000000000000940511241FBECFEF25
:10027000D1E2DEBFCDBF00E00CBF12E0A0E0B2E0F3
:10028000E6E9FBE000E00BBF02C007900D92AA3147
:10029000B107D9F722E0AAE1B2E001C01D92A43C67
:1002A000B207E1F711E0C5E3D1E000E006C0219715
:1002B0000109802FFE010E94C105C433D10780E0EF
:1002C0000807A9F70E945A040C94C9050C94000071
:1002D0008150823108F05AC0E82FF0E08827EC58AE
:1002E000FE4F8F4F0C94C1059401980186018C013B
:1002F0009001C6019B01A101A501AB01AF01B301B2
:10030000B901BD01C601C101C701CB0180918000C7
:100310008F77809380000895809180008F7DF9CF42
:1003200080918000877FF5CF84B58F7784BD089555
:1003300084B58F7DFBCF8091B0008F778093B00024
:1003400008958091B0008F7DF9CF809190008F77D4
:10035000809390000895809190008F7DF9CF8091D7
:100360009000877FF5CF8091A0008F778093A000C9
:1003700008958091A0008F7DF9CF8091A000877FA4
:10038000F5CF809120018F7780932001089580918F
:1003900020018F7DF9CF80912001877FF5CFCF930A
:1003A000DF93282F30E0F901EE5DFD4F8491F901D4
:1003B000E452FE4FD491F901EA56FE4FC491CC238A
:1003C000A1F081110E946801EC2FF0E0EE0FFF1FF9
:1003D000E458FE4FA591B491EC91ED2381E090E0BB
:1003E00009F480E0DF91CF91089580E090E0FACFAA
:1003F0001F93CF93DF93282F30E0F901EE5DFD4F7F
:100400008491F901E452FE4FD491F901EA56FE4F6E
:10041000C491CC23A9F0162F81110E946801EC2F02
:10042000F0E0EE0FFF1FEE59FE4FA591B4918FB78C
:10043000F894EC91111108C0D095DE23DC938FBFA6
:10044000DF91CF911F910895DE2BF8CFCF93DF93EB
:1004500090E0FC01E452FE4F24918A569E4FFC012D
:1004600084918823D1F090E0880F991FFC01E85B0C
:10047000FE4FA591B491FC01EE59FE4FC591D49168
:1004800061110EC09FB7F8948C91E22FE0958E23F6
:100490008C932881E223E8839FBFDF91CF91089559
:1004A0008FB7F894EC91E22BEC938FBFF6CF3FB768
:1004B000F8948091C0029091C102A091C202B091C3
:1004C000C30226B5A89B05C02F3F19F00196A11DB8
:1004D000B11D3FBFBA2FA92F982F8827BC01CD018E
:1004E000620F711D811D911D42E0660F771F881FED
:1004F000991F4A95D1F70895AF92BF92CF92DF929C
:10050000EF92FF920F931F93CF93DF936C017B01C8
:100510008B01040F151FEB015E01AE18BF08C01759
:10052000D10759F06991D601ED91FC910190F081CC
:10053000E02DC6011995892B79F7C501DF91CF917F
:100540001F910F91FF90EF90DF90CF90BF90AF90F1
:100550000895FC01538D448D252F30E0842F90E0C9
:10056000821B930B541710F0CF96089501970895AE
:10057000FC01918D828D981761F0A28DAE0FBF2F77
:10058000B11D5D968C91928D9F5F9F73928F90E0CD
:1005900008958FEF9FEF0895FC01918D828D98173C
:1005A00031F0828DE80FF11D858D90E008958FEF79
:1005B0009FEF0895FC01918D228D892F90E0805C42
:1005C0009F4F821B91098F73992708958AE192E0CA
:1005D0000E94DA0221E0892B09F420E0822F08959D
:1005E000FC01A48DA80FB92FB11DA35ABF4F2C91A8
:1005F000848D90E001968F739927848FA689B7899F
:100600002C93A089B1898C91837080648C93938D95
:10061000848D981306C00288F389E02D80818F7D38
:1006200080830895EF92FF920F931F93CF93DF93F0
:10063000EC0181E0888F9B8D8C8D98131AC0E8891E
:10064000F989808185FF15C09FB7F894EE89FF89ED
:100650006083E889F98980818370806480839FBF8B
:1006600081E090E0DF91CF911F910F91FF90EF908B
:100670000895F62E0B8D10E00F5F1F4F0F7311279B
:10068000E02E8C8D8E110CC00FB607FCFACFE889D6
:10069000F989808185FFF5CFCE010E94F002F1CF6C
:1006A000EB8DEC0FFD2FF11DE35AFF4FF0829FB74A
:1006B000F8940B8FEA89FB8980818062CFCFCF933A
:1006C000DF93EC01888D8823B9F0AA89BB89E8897A
:1006D000F9898C9185FD03C0808186FD0DC00FB620
:1006E00007FCF7CF8C9185FFF2CF808185FFEDCF9E
:1006F000CE010E94F002E9CFDF91CF91089580E012
:1007000090E0892B29F00E94E60281110E940000EE
:1007100080E090E0892B49F080E090E0892B29F07F
:100720000E94000081110E94000080E090E0892B6F
:1007300049F080E090E0892B29F00E9400008111AF
:100740000E94000080E090E0892B49F080E090E07A
:10075000892B29F00E94000081110C94000008955B
:100760001F920F920FB60F9211242F933F938F93E6
:100770009F93AF93BF938091BC029091BD02A091D3
:10078000BE02B091BF023091BB0223E0230F2D3790
:1007900058F50196A11DB11D2093BB028093BC02A8
:1007A0009093BD02A093BE02B093BF028091C0029D
:1007B0009091C102A091C202B091C3020196A11D05
:1007C000B11D8093C0029093C102A093C202B09366
:1007D000C302BF91AF919F918F913F912F910F9045
:1007E0000FBE0F901F90189526E8230F0296A11DAB
:1007F000B11DD2CF1F920F920FB60F9211240BB6DC
:100800000F922F933F934F935F936F937F938F93A9
:100810009F93AF93BF93EF93FF938AE192E00E947F
:10082000F002FF91EF91BF91AF919F918F917F91D6
:100830006F915F914F913F912F910F900BBE0F9051
:100840000FBE0F901F9018951F920F920FB60F9228
:1008500011240BB60F922F938F939F93EF93FF93D7
:10086000E0912A02F0912B028081E0913002F09118
:10087000310282FD1DC09081809133028F5F8F73A2
:1008800020913402821741F0E0913302F0E0E65EFD
:10089000FD4F958F80933302FF91EF919F918F9140
:1008A0002F910F900BBE0F900FBE0F901F901895B9
:1008B0008081F2CF789484B5826084BD84B58160F4
:1008C00084BD85B5826085BD85B5816085BD80911B
:1008D0006E00816080936E00109281008091810093
:1008E000826080938100809181008160809381008B
:1008F000809180008160809380008091B10084604D
:100900008093B1008091B00081608093B0008091AD
:10091000910082608093910080919100816080932A
:100920009100809190008160809390008091A1005F
:1009300082608093A1008091A10081608093A100DA
:100940008091A00081608093A0008091210182604D
:100950008093210180912101816080932101809108
:10096000200181608093200180917A0084608093CF
:100970007A0080917A00826080937A0080917A0078
:10098000816080937A0080917A00806880937A00F9
:100990001092C100E0912A02F0912B0282E0808344
:1009A000E0912602F09127021082E0912802F09156
:1009B00029028FEC808310923202E0912E02F09196
:1009C0002F0286E08083E0912C02F0912D0280813D
:1009D00080618083E0912C02F0912D0280818860FB
:1009E0008083E0912C02F0912D02808180688083C9
:1009F000E0912C02F0912D0280818F7D808361E057
:100A000082E00E94260261E08CE00E94260260E003
:100A100084E00E94260260E086E00E942602C3E095
:100A2000D0E001E010E092E0E92EF12C84E00E9499
:100A3000CF015C019093BA028093B90286E00E94D4
:100A4000CF01AB2821F5892B49F51092B8021092FD
:100A5000B7028091B7029091B8028130910509F4F4
:100A60005BC034F561E0892B09F459C044E050E0E3
:100A700062E172E08AE192E00E947C0242E050E092
:100A800067E172E08AE192E00E947C021EC0892B3D
:100A900051F41093B8020093B702DBCFF092B80282
:100AA000E092B702D6CFD093B802C093B702D1CFAD
:100AB0008230910599F160E00397C1F682E00E94CF
:100AC000F80160E08CE00E94F8010E9457024B019F
:100AD0005C0184E6482E512C612C712C0E94570237
:100AE000681979098A099B09683E73408105910557
:100AF000A8F321E0421A51086108710888EE880EB7
:100B000083E0981EA11CB11C4114510461047104BE
:100B100029F70E947F038ACF61E0D0CF60E082E0B6
:100B20000E94F80161E0CECFEAE1F2E01382128286
:100B300088EE93E0A0E0B0E084839583A683B7833A
:100B400084E092E09183808385EC90E095878487B0
:100B500084EC90E09787868780EC90E0918B808B87
:100B600081EC90E0938B828B82EC90E0958B848B70
:100B700086EC90E0978B868B118E128E138E148EDE
:100B80000895EE0FFF1F881F8BBF0790F691E02D91
:060B90001994F894FFCF58
:100B96000000000012037C02A9025F03DA02B80219
:0A0BA600CC024572726F000D0A00C8
:00000001FF
