:100000000C9435010C9466010C9466010C94660105
:100010000C9466010C9466010C9466010C946601C4
:100020000C9466010C9466010C9466010C946601B4
:100030000C9466010C9466010C9466010C946601A4
:100040000C9466010C9466010C9466010C94660194
:100050000C9466010C9466010C9466010C943B03AD
:100060000C9466010C94AF030C9485030C94660108
:100070000C9466010C9466010C9466010C94660164
:100080000C9466010C9466010C9466010C94660154
:100090000C9466010C9466010C9466010C94660144
:1000A0000C9466010C9466010C9466010C94660134
:1000B0000C9466010C9466010C9466010C94660124
:1000C0000C9466010C9466010C9466010C94660114
:1000D0000C9466010C9466010C9466010C94660104
:1000E0000C9466010C94AB010C94C7010C94900223
:1000F0000C9494010C94FA010C9427020C94A50121
:100100000C9486010C948C010C94A1010C944A026D
:100110000C94C6010C9498010C9490010C94CB01A2
:100120000C94AF010C94B3010C94BD010C945802D3
:100130000C94DD020C94F6040C9436020C949B0192
:100140000C94C1010C94B901000021002400270087
:100150002A002D00300033000101000004010701D6
:100160000A01000020002300260029002C002F0097
:100170003200000100000301060109010000220015
:10018000250028002B002E00310034000201000061
:10019000050108010B010505050507050808080804
:1001A000020202020A0A080804040404010101010F
:1001B000010101010303030303030303040707070A
:1001C0000C0C0C0C0C0C0C0C0202020206060606AF
:1001D000060606060B0B0B0B0B0B0B0B010210207C
:1001E000200808102040102040800201020108046D
:1001F0000201010204081020408080402010080401
:100200000201800402018040201008040201080459
:10021000020101020408102040800102040810209D
:10022000408000000A0B02090C0D0E0807030401B0
:1002300000000000000000000000000000000000BE
:10024000000000000000000000000000000012118B
:10025000100000000000000000000000000000008E
:100260000000000000000000F60411241FBECFEFC4
:10027000D1E2DEBFCDBF00E00CBF12E0A0E0B2E0F3
:10028000EAE5FAE000E00BBF02C007900D92AC3245
:10029000B107D9F722E0ACE2B2E001C01D92A23D65
:1002A000B207E1F711E0C5E3D1E000E006C0219715
:1002B0000109802FFE010E942305C433D10780E08D
:1002C0000807A9F70E94E5030C942B050C94000085
:1002D0008150823108F05AC0E82FF0E08827EC58AE
:1002E000FE4F8F4F0C9423059401980186018C01D9
:1002F0009001C6019B01A101A501AB01AF01B301B2
:10030000B901BD01C601C101C701CB0180918000C7
:100310008F77809380000895809180008F7DF9CF42
:1003200080918000877FF5CF84B58F7784BD089555
:1003300084B58F7DFBCF8091B0008F778093B00024
:1003400008958091B0008F7DF9CF809190008F77D4
:10035000809390000895809190008F7DF9CF8091D7
:100360009000877FF5CF8091A0008F778093A000C9
:1003700008958091A0008F7DF9CF8091A000877FA4
:10038000F5CF809120018F7780932001089580918F
:1003900020018F7DF9CF80912001877FF5CF1F93BA
:1003A000CF93DF93EFE2F2E09491E9EEF1E0D491A4
:1003B000E3EAF1E0C491CC23B9F0182F992319F0A6
:1003C000892F0E946801EC2FF0E0EE0FFF1FE45828
:1003D000FE4FA591B4918FB7F894EC91111108C01C
:1003E000D095DE23DC938FBFDF91CF911F910895CD
:1003F000DE2BF8CFAF92BF92CF92DF92EF92FF92B7
:100400000F931F93CF93DF936C017B018B01040F3C
:10041000151FEB015E01AE18BF08C017D10759F0D8
:100420006991D601ED91FC910190F081E02DC6011A
:100430001995892B79F7C501DF91CF911F910F9104
:10044000FF90EF90DF90CF90BF90AF900895FC01A8
:10045000538D448D252F30E0842F90E0821B930B29
:10046000541710F0CF96089501970895FC01918DCF
:10047000828D981761F0A28DAE0FBF2FB11D5D96D2
:100480008C91928D9F5F9F73928F90E008958FEF74
:100490009FEF0895FC01918D828D981731F0828D28
:1004A000E80FF11D858D90E008958FEF9FEF08957F
:1004B000FC01918D228D892F90E0805C9F4F821BE3
:1004C00091098F739927089585E392E00E9458025D
:1004D00021E0892B09F420E0822F0895FC01A48DEE
:1004E000A80FB92FB11DA35ABF4F2C91848D90E056
:1004F00001968F739927848FA689B7892C93A08939
:10050000B1898C91837080648C93938D848D9813C2
:1005100006C00288F389E02D80818F7D8083089555
:10052000EF92FF920F931F93CF93DF93EC0181E043
:10053000888F9B8D8C8D98131AC0E889F9898081EA
:1005400085FF15C09FB7F894EE89FF896083E8891D
:10055000F98980818370806480839FBF81E090E00F
:10056000DF91CF911F910F91FF90EF900895F62E9C
:100570000B8D10E00F5F1F4F0F731127E02E8C8D36
:100580008E110CC00FB607FCFACFE889F98980817B
:1005900085FFF5CFCE010E946E02F1CFEB8DEC0FFF
:1005A000FD2FF11DE35AFF4FF0829FB7F8940B8F98
:1005B000EA89FB8980818062CFCFCF93DF93EC0102
:1005C000888D8823B9F0AA89BB89E889F9898C913B
:1005D00085FD03C0808186FD0DC00FB607FCF7CFF7
:1005E0008C9185FFF2CF808185FFEDCFCE010E94F7
:1005F0006E02E9CFDF91CF91089580E090E0892BE2
:1006000029F00E94640281110E94000080E090E0C5
:10061000892B49F080E090E0892B29F00E940000AE
:1006200081110E94000080E090E0892B49F080E079
:1006300090E0892B29F00E94000081110E940000A7
:1006400080E090E0892B49F080E090E0892B29F050
:100650000E94000081110C9400000895FC0101909B
:100660000020E9F73197AF01481B590BBC0185E326
:1006700092E00C94FA011F920F920FB60F92112480
:100680002F933F938F939F93AF93BF9380913102AA
:1006900090913202A0913302B09134023091300235
:1006A00023E0230F2D3758F50196A11DB11D20938E
:1006B00030028093310290933202A0933302B093C0
:1006C000340280912C0290912D02A0912E02B091C3
:1006D0002F020196A11DB11D80932C0290932D0233
:1006E000A0932E02B0932F02BF91AF919F918F9153
:1006F0003F912F910F900FBE0F901F90189526E8F5
:10070000230F0296A11DB11DD2CF1F920F920FB6DB
:100710000F9211240BB60F922F933F934F935F9339
:100720006F937F938F939F93AF93BF93EF93FF93B9
:1007300085E392E00E946E02FF91EF91BF91AF912D
:100740009F918F917F916F915F914F913F912F91E9
:100750000F900BBE0F900FBE0F901F9018951F9219
:100760000F920FB60F9211240BB60F922F938F9307
:100770009F93EF93FF93E0914502F09146028081B1
:10078000E0914B02F0914C0282FD1DC0908180915E
:100790004E028F5F8F7320914F02821741F0E091DC
:1007A0004E02F0E0EB5CFD4F958F80934E02FF917F
:1007B000EF919F918F912F910F900BBE0F900FBED5
:1007C0000F901F9018958081F2CF789484B5826045
:1007D00084BD84B5816084BD85B5826085BD85B5E5
:1007E000816085BD80916E00816080936E00109263
:1007F00081008091810082608093810080918100DE
:10080000816080938100809180008160809380006E
:100810008091B10084608093B1008091B0008160CC
:100820008093B000809191008260809391008091CC
:10083000910081608093910080919000816080930D
:1008400090008091A10082608093A1008091A1001E
:1008500081608093A1008091A00081608093A000BE
:10086000809121018260809321018091210181602A
:1008700080932101809120018160809320018091EB
:100880007A00846080937A0080917A0082608093FD
:100890007A0080917A00816080937A0080917A005A
:1008A000806880937A001092C100E0914502F09137
:1008B000460282E08083E0914102F0914202108280
:1008C000E0914302F091440280E1808310924D0256
:1008D000E0914902F0914A0286E08083E09147026C
:1008E000F0914802808180618083E0914702F0911D
:1008F0004802808188608083E0914702F09148023D
:10090000808180688083E0914702F0914802808175
:100910008F7D8083CEEDD1E0FE01249108E911E0C6
:10092000F80184918823C9F090E0880F991FFC0199
:10093000E85BFE4FA591B491FC01E458FE4F459150
:1009400054913FB7F8949C91822F809598239C9363
:10095000FA019081892380833FBFE9EEF1E0249181
:10096000E3EAF1E08491882399F090E0880F991FE1
:10097000FC01E85BFE4FA591B491FC01E458FE4FE9
:10098000859194918FB7F894EC91E22BEC938FBF03
:1009900094E2E92E92E0F92EF7018491FE01C490D1
:1009A000F801D490DD20E1F081110E946801ED2D65
:1009B000F0E0EE0FFF1FEE59FE4FA591B4918C9120
:1009C000C82271F080E00E94CF0182E192E00E9493
:1009D0002E038FE192E00E942E030E94FD02DCCFE5
:1009E00081E00E94CF0182E292E0F1CFE5E3F2E004
:1009F0001382128288EE93E0A0E0B0E084839583B6
:100A0000A683B78384E092E09183808385EC90E0B5
:100A10009587848784EC90E09787868780EC90E0C8
:100A2000918B808B81EC90E0938B828B82EC90E0B9
:100A3000958B848B86EC90E0978B868B118E128E33
:100A4000138E148E0895EE0FFF1F881F8BBF079023
:0A0A5000F691E02D1994F894FFCF01
:100A5A00000000009002FA012702DD025802360265
:100A6A004A024C4544206465736C69676F75000DD2
:0C0A7A000A004C4544206C69676F750051
:00000001FF
