:100000000C9435010C9466010C9466010C94660105
:100010000C9466010C9466010C9466010C946601C4
:100020000C9466010C9466010C9466010C946601B4
:100030000C9466010C9466010C9466010C946601A4
:100040000C9466010C9466010C9466010C94660194
:100050000C9466010C9466010C9466010C94650482
:100060000C9466010C94D9040C94AF040C946601B2
:100070000C9466010C9466010C9466010C94660164
:100080000C9466010C9466010C9466010C94660154
:100090000C9466010C9466010C9466010C94660144
:1000A0000C9466010C9466010C9466010C94660134
:1000B0000C9466010C9466010C9466010C94660124
:1000C0000C9466010C9466010C9466010C94660114
:1000D0000C9466010C9466010C9466010C94660104
:1000E0000C9466010C94AB010C945F030C94C70153
:1000F0000C9494010C94A5010C9476060C94860142
:100100000C948C010C94B8020C947C020C94A10108
:100110000C94C6010C9498010C94A9020C949001C3
:100120000C94CB010C9412030C94CC020C94AF01F0
:100130000C94B3010C94BD010C94DA020C949B0155
:100140000C94C1010C94B901000021002400270087
:100150002A002D00300033000101000004010701D6
:100160000A0100002200250028002B002E0031008B
:10017000340002010000050108010B01000020000D
:100180002300260029002C002F003200000100006F
:10019000030106010901050505050705080808080A
:1001A000020202020A0A080804040404010101010F
:1001B000010101010303030303030303040707070A
:1001C0000C0C0C0C0C0C0C0C0202020206060606AF
:1001D000060606060B0B0B0B0B0B0B0B010210207C
:1001E000200808102040102040800201020108046D
:1001F0000201010204081020408080402010080401
:100200000201800402018040201008040201080459
:10021000020101020408102040800102040810209D
:10022000408000000A0B02090C0D0E0807030401B0
:1002300000000000000000000000000000000000BE
:10024000000000000000000000000000000012118B
:10025000100000000000000000000000000000008E
:100260000000000000000000760611241FBECFEF42
:10027000D1E2DEBFCDBF00E00CBF12E0A0E0B2E0F3
:10028000EEE9FDE000E00BBF02C007900D92AA3539
:10029000B107D9F723E0AAE5B2E001C01D92A6306C
:1002A000B207E1F711E0C5E3D1E000E006C0219715
:1002B0000109802FFE010E94C506C433D10780E0EA
:1002C0000807A9F70E940F050C94CD060C940000B6
:1002D0008150823108F05AC0E82FF0E08827EC58AE
:1002E000FE4F8F4F0C94C5069401980186018C0136
:1002F0009001C6019B01A101A501AB01AF01B301B2
:10030000B901BD01C601C101C701CB0180918000C7
:100310008F77809380000895809180008F7DF9CF42
:1003200080918000877FF5CF84B58F7784BD089555
:1003300084B58F7DFBCF8091B0008F778093B00024
:1003400008958091B0008F7DF9CF809190008F77D4
:10035000809390000895809190008F7DF9CF8091D7
:100360009000877FF5CF8091A0008F778093A000C9
:1003700008958091A0008F7DF9CF8091A000877FA4
:10038000F5CF809120018F7780932001089580918F
:1003900020018F7DF9CF80912001877FF5CFCF930A
:1003A000DF93282F30E0F901EE5DFD4F8491F901D4
:1003B000E452FE4FD491F901EA56FE4FC491CC238A
:1003C000A1F081110E946801EC2FF0E0EE0FFF1FF9
:1003D000E458FE4FA591B491EC91ED2381E090E0BB
:1003E00009F480E0DF91CF91089580E090E0FACFAA
:1003F0001F93CF93DF93282F30E0F901EE5DFD4F7F
:100400008491F901E452FE4FD491F901EA56FE4F6E
:10041000C491CC23A9F0162F81110E946801EC2F02
:10042000F0E0EE0FFF1FEE59FE4FA591B4918FB78C
:10043000F894EC91111108C0D095DE23DC938FBFA6
:10044000DF91CF911F910895DE2BF8CFCF93DF93EB
:1004500090E0FC01E452FE4F24918A569E4FFC012D
:1004600084918823D1F090E0880F991FFC01E85B0C
:10047000FE4FA591B491FC01EE59FE4FC591D49168
:1004800061110EC09FB7F8948C91E22FE0958E23F6
:100490008C932881E223E8839FBFDF91CF91089559
:1004A0008FB7F894EC91E22BEC938FBFF6CF3FB768
:1004B000F8948091650290916602A0916702B091D4
:1004C000680226B5A89B05C02F3F19F00196A11D13
:1004D000B11D3FBFBA2FA92F982F8827BC01CD018E
:1004E000620F711D811D911D42E0660F771F881FED
:1004F000991F4A95D1F70895AF92BF92CF92DF929C
:10050000EF92FF920F931F93CF93DF936C017B01C8
:100510008B01040F151FEB015E01AE18BF08C01759
:10052000D10759F06991D601ED91FC910190F081CC
:10053000E02DC6011995892B79F7C501DF91CF917F
:100540001F910F91FF90EF90DF90CF90BF90AF90F1
:100550000895FC01538D448D252F30E0842F90E0C9
:10056000821B930B541710F0CF96089501970895AE
:10057000FC01918D828D981761F0A28DAE0FBF2F77
:10058000B11D5D968C91928D9F5F9F73928F90E0CD
:1005900008958FEF9FEF0895FC01918D828D98173C
:1005A00031F0828DE80FF11D858D90E008958FEF79
:1005B0009FEF0895FC01918D228D892F90E0805C42
:1005C0009F4F821B91098F739927089589E692E0C6
:1005D0000E94DA0221E0892B09F420E0822F08959D
:1005E000FC01A48DA80FB92FB11DA35ABF4F2C91A8
:1005F000848D90E001968F739927848FA689B7899F
:100600002C93A089B1898C91837080648C93938D95
:10061000848D981306C00288F389E02D80818F7D38
:1006200080830895EF92FF920F931F93CF93DF93F0
:10063000EC0181E0888F9B8D8C8D98131AC0E8891E
:10064000F989808185FF15C09FB7F894EE89FF89ED
:100650006083E889F98980818370806480839FBF8B
:1006600081E090E0DF91CF911F910F91FF90EF908B
:100670000895F62E0B8D10E00F5F1F4F0F7311279B
:10068000E02E8C8D8E110CC00FB607FCFACFE889D6
:10069000F989808185FFF5CFCE010E94F002F1CF6C
:1006A000EB8DEC0FFD2FF11DE35AFF4FF0829FB74A
:1006B000F8940B8FEA89FB8980818062CFCFCF933A
:1006C000DF93EC01888D8823B9F0AA89BB89E8897A
:1006D000F9898C9185FD03C0808186FD0DC00FB620
:1006E00007FCF7CF8C9185FFF2CF808185FFEDCF9E
:1006F000CE010E94F002E9CFDF91CF91089580E012
:1007000090E0892B29F00E94E60281110E940000EE
:1007100080E090E0892B49F080E090E0892B29F07F
:100720000E94000081110E94000080E090E0892B6F
:1007300049F080E090E0892B29F00E9400008111AF
:100740000E94000080E090E0892B49F080E090E07A
:10075000892B29F00E94000081110C94000008955B
:10076000FC0101900020E9F73197AF01481B590BBC
:10077000BC0189E692E00C947C028F929F92AF922A
:10078000BF920F931F93CF93DF93CDB7DEB7A1979F
:100790000FB6F894DEBF0FBECDBF19A2423008F4E9
:1007A0004AE08E010F5D1F4F842E912CB12CA12C9D
:1007B000A50194010E94A306E62FB901CA01EA30FF
:1007C000F4F4E05DD801EE938D01232B242B252B2F
:1007D00079F790E080E0109719F0CD010E94B00306
:1007E000A1960FB6F894DEBF0FBECDBFDF91CF91BB
:1007F0001F910F91BF90AF909F908F900895E95CEB
:10080000E1CFCF92DF92EF92FF92CF93DF936B0114
:100810007C016DE289E692E00E941203EC016627FA
:100820007727CB016C197D098E099F094AE00E9448
:10083000BD038C0F9D1FDF91CF91FF90EF90DF9054
:10084000CF900895BC01990F880B990B4AE00C9446
:10085000BD03EF92FF920F931F93CF93DF93082F67
:10086000E92E162FF72EEA01682F82E00E94F80188
:10087000612F89E00E94F8016C2F8CE00E94F80142
:1008800082E192E00E94B003802F9E2D0E942204FC
:1008900087E292E00E94B003812F9F2D0E942204E4
:1008A00081E392E00E94B003BE01DD0F880B990B3B
:1008B0004AE00E94BD038EE392E0DF91CF911F9149
:1008C0000F91FF90EF900C94B0031F920F920FB610
:1008D0000F9211242F933F938F939F93AF93BF93C6
:1008E0008091610290916202A0916302B0916402D2
:1008F0003091600223E0230F2D3758F50196A11D9A
:10090000B11D209360028093610290936202A093D4
:100910006302B09364028091650290916602A09197
:100920006702B09168020196A11DB11D8093650216
:1009300090936602A0936702B0936802BF91AF9153
:100940009F918F913F912F910F900FBE0F901F900D
:10095000189526E8230F0296A11DB11DD2CF1F9234
:100960000F920FB60F9211240BB60F922F933F9355
:100970004F935F936F937F938F939F93AF93BF93A7
:10098000EF93FF9389E692E00E94F002FF91EF91CE
:10099000BF91AF919F918F917F916F915F914F9197
:1009A0003F912F910F900BBE0F900FBE0F901F9095
:1009B00018951F920F920FB60F9211240BB60F923B
:1009C0002F938F939F93EF93FF93E0917902F09190
:1009D0007A028081E0917F02F091800282FD1DC049
:1009E0009081809182028F5F8F73209183028217A2
:1009F00041F0E0918202F0E0E759FD4F958F80933E
:100A00008202FF91EF919F918F912F910F900BBEDA
:100A10000F900FBE0F901F9018958081F2CF7894A1
:100A200084B5826084BD84B5816084BD85B58260F3
:100A300085BD85B5816085BD80916E0081608093A4
:100A40006E0010928100809181008260809381000D
:100A5000809181008160809381008091800081601D
:100A6000809380008091B10084608093B100809178
:100A7000B00081608093B00080919100826080938B
:100A8000910080919100816080939100809190000D
:100A90008160809390008091A10082608093A1008A
:100AA0008091A10081608093A1008091A00081606D
:100AB0008093A00080912101826080932101809128
:100AC00021018160809321018091200181608093C8
:100AD000200180917A00846080937A0080917A006E
:100AE000826080937A0080917A00816080937A009E
:100AF00080917A00806880937A001092C100E09122
:100B00007902F0917A0282E08083E0917502F0919F
:100B100076021082E0917702F09178028FEC808368
:100B200010928102E0917D02F0917E0286E0808346
:100B3000E0917B02F0917C02808180618083E09172
:100B40007B02F0917C02808188608083E0917B024F
:100B5000F0917C02808180688083E0917B02F0913B
:100B60007C0280818F7D808361E082E00E9426028A
:100B700061E089E00E94260261E08CE00E9426028A
:100B800060E084E00E94260260E085E00E94260288
:100B900060E086E00E94260294E0892E912CC1E05C
:100BA000D0E003E010E022E0A22EB12C84E00E940D
:100BB000CF016C0190935F0280935E0285E00E94FA
:100BC000CF017C0190935D0280935C0286E00E94DD
:100BD000CF01CD2841F5EF28A1F5892B69F51092B9
:100BE0005B0210925A0280915A0290915B0282300D
:100BF000910509F473C08CF5009709F463C001975F
:100C000009F467C050E040E070E060E090E080E010
:100C10000E94290481E492E00E94B0038EE392E0F6
:100C20000E94B00328C0EF2899F4892B89F4D0934F
:100C30005B02C0935A02D7CFB0925B02A0925A02D5
:100C4000D2CF892B29F410935B0200935A02CBCFA9
:100C500090925B0280925A02C6CF8330910509F4CC
:100C600040C041E050E061E070E0049759F681E057
:100C700090E00E9429040E9457022B013C0184E667
:100C8000C82ED12CE12CF12C0E9457026419750951
:100C900086099709683E734081059105A8F321E014
:100CA000C21AD108E108F10888EE480E83E0581E08
:100CB000611C711CC114D104E104F10429F70E94E4
:100CC0007F0374CF50E040E070E060E090E080E0AF
:100CD000D0CF50E040E070E060E0C9CF41E050E0AC
:100CE000F3CF50E040E061E070E0F0CFE9E6F2E001
:100CF0001382128288EE93E0A0E0B0E084839583B3
:100D0000A683B78384E092E09183808385EC90E0B2
:100D10009587848784EC90E09787868780EC90E0C5
:100D2000918B808B81EC90E0938B828B82EC90E0B6
:100D3000958B848B86EC90E0978B868B118E128E30
:100D4000138E148E0895A1E21A2EAA1BBB1BFD015F
:100D50000DC0AA1FBB1FEE1FFF1FA217B307E4079A
:100D6000F50720F0A21BB30BE40BF50B661F771FF2
:100D7000881F991F1A9469F76095709580959095D2
:100D80009B01AC01BD01CF010895EE0FFF1F881F2D
:0E0D90008BBF0790F691E02D1994F894FFCFD9
:100D9E000000000012037C02A9025F03DA02B8020F
:100DAE00CC0245737461646F202D3E2045737175BE
:100DBE006572646F3A2000207C204D65696F3A2081
:100DCE0000207C204469726569746F3A20000D0A18
:100DDE00004572726F3A206F70C3A7C3A36F20696C
:0A0DEE006E76C3A16C696461000019
:00000001FF
