:100000000C9483000C94B4000C94B4000C94B400D1
:100010000C94B4000C94B4000C94B4000C94B40090
:100020000C94B4000C94B4000C94B4000C94B40080
:100030000C94B4000C94B4000C94B4000C94B40070
:100040000C94B4000C94B4000C94B4000C94B40060
:100050000C94B4000C94B4000C94B4000C941C02E6
:100060000C94B4000C9490020C9466020C94B400AE
:100070000C94B4000C94B4000C94B4000C94B40030
:100080000C94B4000C94B4000C94B4000C94B40020
:100090000C94B4000C94B4000C94B4000C94B40010
:1000A0000C94B4000C94B4000C94B4000C94B40000
:1000B0000C94B4000C94B4000C94B4000C94B400F0
:1000C0000C94B4000C94B4000C94B4000C94B400E0
:1000D0000C94B4000C94B4000C94B4000C94B400D0
:1000E0000C94B4000C94DB000C94BE010C9417012A
:1000F0000C949B030C9471010C9439010C9408012D
:100100000C942B019B0311241FBECFEFD1E2DEBF65
:10011000CDBF00E00CBF12E0A0E0B2E0E4EAF7E0FF
:1001200000E00BBF02C007900D92AC31B107D9F7C8
:1001300022E0ACE1B2E001C01D92A23CB207E1F7BF
:1001400010E0C3E8D0E000E006C021970109802F4D
:10015000FE010E94C803C238D10780E00807A9F752
:100160000E94C6020C94D0030C9400003FB7F89490
:100170008091210290912202A0912302B091240249
:1001800026B5A89B05C02F3F19F00196A11DB11DF2
:100190003FBFBA2FA92F982F8827BC01CD01620F2E
:1001A000711D811D911D42E0660F771F881F991FE9
:1001B0004A95D1F70895AF92BF92CF92DF92EF9216
:1001C000FF920F931F93CF93DF936C017B018B0101
:1001D000040F151FEB015E01AE18BF08C017D10751
:1001E00059F06991D601ED91FC910190F081E02DDB
:1001F000C6011995892B79F7C501DF91CF911F9120
:100200000F91FF90EF90DF90CF90BF90AF90089547
:10021000FC01538D448D252F30E0842F90E0821B0C
:10022000930B541710F0CF96089501970895FC0191
:10023000918D828D981761F0A28DAE0FBF2FB11DE9
:100240005D968C91928D9F5F9F73928F90E0089541
:100250008FEF9FEF0895FC01918D828D981731F0FB
:10026000828DE80FF11D858D90E008958FEF9FEF4F
:100270000895FC01918D228D892F90E0805C9F4F25
:10028000821B91098F739927089585E292E00E945D
:10029000390121E0892B09F420E0822F0895FC0127
:1002A000A48DA80FB92FB11DA35ABF4F2C91848DD7
:1002B00090E001968F739927848FA689B7892C9334
:1002C000A089B1898C91837080648C93938D848D87
:1002D000981306C00288F389E02D80818F7D80838A
:1002E0000895EF92FF920F931F93CF93DF93EC014A
:1002F00081E0888F9B8D8C8D98131AC0E889F989CD
:10030000808185FF15C09FB7F894EE89FF896083CF
:10031000E889F98980818370806480839FBF81E050
:1003200090E0DF91CF911F910F91FF90EF90089592
:10033000F62E0B8D10E00F5F1F4F0F731127E02E6D
:100340008C8D8E110CC00FB607FCFACFE889F989A5
:10035000808185FFF5CFCE010E944F01F1CFEB8D5B
:10036000EC0FFD2FF11DE35AFF4FF0829FB7F89479
:100370000B8FEA89FB8980818062CFCFCF93DF9397
:10038000EC01888D8823B9F0AA89BB89E889F989AD
:100390008C9185FD03C0808186FD0DC00FB607FCE2
:1003A000F7CF8C9185FFF2CF808185FFEDCFCE0115
:1003B0000E944F01E9CFDF91CF91089580E090E056
:1003C000892B29F00E94450181110E94000080E0E4
:1003D00090E0892B49F080E090E0892B29F00E9481
:1003E000000081110E94000080E090E0892B49F01C
:1003F00080E090E0892B29F00E94000081110E948A
:10040000000080E090E0892B49F080E090E0892BAB
:1004100029F00E94000081110C9400000895FC0155
:1004200001900020E9F73197AF01481B590BBC013F
:1004300085E292E00C94DB001F920F920FB60F92B0
:1004400011242F933F938F939F93AF93BF938091EA
:100450001D0290911E02A0911F02B09120023091C6
:100460001C0223E0230F2D3758F50196A11DB11D65
:1004700020931C0280931D0290931E02A0931F02E2
:10048000B09320028091210290912202A091230238
:10049000B09124020196A11DB11D80932102909379
:1004A0002202A0932302B0932402BF91AF919F91A7
:1004B0008F913F912F910F900FBE0F901F90189525
:1004C00026E8230F0296A11DB11DD2CF1F920F92D5
:1004D0000FB60F9211240BB60F922F933F934F93A9
:1004E0005F936F937F938F939F93AF93BF93EF939C
:1004F000FF9385E292E00E944F01FF91EF91BF913F
:10050000AF919F918F917F916F915F914F913F91AB
:100510002F910F900BBE0F900FBE0F901F9018954C
:100520001F920F920FB60F9211240BB60F922F93BA
:100530008F939F93EF93FF93E0913502F0913602F2
:100540008081E0913B02F0913C0282FD1DC09081D0
:1005500080913E028F5F8F7320913F02821741F09E
:10056000E0913E02F0E0EB5DFD4F958F80933E02FF
:10057000FF91EF919F918F912F910F900BBE0F9054
:100580000FBE0F901F9018958081F2CF789484B59C
:10059000826084BD84B5816084BD85B5826085BD7F
:1005A00085B5816085BD80916E00816080936E000D
:1005B00010928100809181008260809381008091FF
:1005C00081008160809381008091800081608093B0
:1005D00080008091B10084608093B1008091B00070
:1005E00081608093B000809191008260809391003F
:1005F0008091910081608093910080919000816052
:10060000809390008091A10082608093A1008091EE
:10061000A10081608093A1008091A00081608093FF
:10062000A0008091210182608093210180912101AD
:10063000816080932101809120018160809320015D
:1006400080917A00846080937A0080917A00826041
:1006500080937A0080917A00816080937A00809103
:100660007A00806880937A001092C100E091350290
:10067000F091360282E08083E0913102F091320203
:100680001082E0913302F091340280E18083109275
:100690003D02E0913902F0913A0286E08083E091D8
:1006A0003702F0913802808180618083E0913702C7
:1006B000F0913802808188608083E0913702F09168
:1006C0003802808180688083E0913702F09138029F
:1006D00080818F7D808382E192E00E940F0288E119
:1006E00092E00E940F020E94B6006B017C0188EE2E
:1006F000882E83E0982EA12CB12C0E94B6006C1994
:100700007D098E099F09683E734081059105A8F314
:1007100021E0821A9108A108B10888EEC80E83E092
:10072000D81EE11CF11C81149104A104B10429F725
:100730000E94DE01D0CFE5E2F2E01382128288EE61
:1007400093E0A0E0B0E084839583A683B78384E040
:1007500092E09183808385EC90E09587848784EC98
:1007600090E09787868780EC90E0918B808B81EC7E
:1007700090E0938B828B82EC90E0958B848B86EC5F
:1007800090E0978B868B118E128E138E148E0895A7
:10079000EE0FFF1F881F8BBF0790F691E02D199475
:0407A000F894FFCFFB
:1007A400000000007101DB000801BE0139011701DE
:0C07B4002B0146616C736F000D0A000001
:00000001FF
