:100000000C9435010C9466010C9466010C94660105
:100010000C9466010C9466010C9466010C946601C4
:100020000C9466010C9466010C9466010C946601B4
:100030000C9466010C9466010C9466010C946601A4
:100040000C9466010C9466010C9466010C94660194
:100050000C9466010C9466010C9466010C945E038A
:100060000C9466010C94D2030C94A8030C946601C2
:100070000C9466010C9466010C9466010C94660164
:100080000C9466010C9466010C9466010C94660154
:100090000C9466010C9466010C9466010C94660144
:1000A0000C9466010C9466010C9466010C94660134
:1000B0000C9466010C9466010C9466010C94660124
:1000C0000C9466010C9466010C9466010C94660114
:1000D0000C9466010C9466010C9466010C94660104
:1000E0000C9466010C94B8020C94CB010C9405039B
:1000F0000C9490010C948C010C94B3010C94C701E6
:100100000C9422020C94C1010C9486010C94AB0156
:100110000C949B010C9494010C94C6010C949801CE
:100120000C94B9010C9480020C94AF010C944A0514
:100130000C945E020C9472020C94A5010C94A10123
:100140000C94BD010C944F020000210024002700F4
:100150002A002D00300033000101000004010701D6
:100160000A01000020002300260029002C002F0097
:100170003200000100000301060109010000220015
:10018000250028002B002E00310034000201000061
:10019000050108010B010505050507050808080804
:1001A000020202020A0A080804040404010101010F
:1001B000010101010303030303030303040707070A
:1001C0000C0C0C0C0C0C0C0C0202020206060606AF
:1001D000060606060B0B0B0B0B0B0B0B010210207C
:1001E000200808102040102040800201020108046D
:1001F0000201010204081020408080402010080401
:100200000201800402018040201008040201080459
:10021000020101020408102040800102040810209D
:10022000408000000A0B02090C0D0E0807030401B0
:1002300000000000000000000000000000000000BE
:10024000000000000000000000000000000012118B
:10025000100000000000000000000000000000008E
:1002600000000000000000004A0511241FBECFEF6F
:10027000D1E2DEBFCDBF00E00CBF12E0A0E0B2E0F3
:10028000E2E0FBE000E00BBF02C007900D92A63257
:10029000B107D9F722E0A6E2B2E001C01D92AC3C62
:1002A000B207E1F711E0C5E3D1E000E006C0219715
:1002B0000109802FFE010E947705C433D10780E039
:1002C0000807A9F70E9408040C947F050C9400000D
:1002D0008150823108F05AC0E82FF0E08827EC58AE
:1002E000FE4F8F4F0C9477059401980186018C0185
:1002F0009001C6019B01A101A501AB01AF01B301B2
:10030000B901BD01C601C101C701CB0180918000C7
:100310008F77809380000895809180008F7DF9CF42
:1003200080918000877FF5CF84B58F7784BD089555
:1003300084B58F7DFBCF8091B0008F778093B00024
:1003400008958091B0008F7DF9CF809190008F77D4
:10035000809390000895809190008F7DF9CF8091D7
:100360009000877FF5CF8091A0008F778093A000C9
:1003700008958091A0008F7DF9CF8091A000877FA4
:10038000F5CF809120018F7780932001089580918F
:1003900020018F7DF9CF80912001877FF5CF1F93BA
:1003A000CF93DF93282F30E0F901EE5DFD4F84916C
:1003B000F901E452FE4FD491F901EA56FE4FC4917F
:1003C000CC23A9F0162F81110E946801EC2FF0E0D8
:1003D000EE0FFF1FE458FE4FA591B4918FB7F8942C
:1003E000EC91111108C0D095DE23DC938FBFDF9113
:1003F000CF911F910895DE2BF8CF3FB7F8948091ED
:100400002B0290912C02A0912D02B0912E0226B5C4
:10041000A89B05C02F3F19F00196A11DB11D3FBF3C
:10042000BA2FA92F982F8827BC01CD01620F711D0B
:10043000811D911D42E0660F771F881F991F4A9505
:10044000D1F70895AF92BF92CF92DF92EF92FF92D1
:100450000F931F93CF93DF936C017B018B01040FEC
:10046000151FEB015E01AE18BF08C017D10759F088
:100470006991D601ED91FC910190F081E02DC601CA
:100480001995892B79F7C501DF91CF911F910F91B4
:10049000FF90EF90DF90CF90BF90AF900895FC0158
:1004A000538D448D252F30E0842F90E0821B930BD9
:1004B000541710F0CF96089501970895FC01918D7F
:1004C000828D981761F0A28DAE0FBF2FB11D5D9682
:1004D0008C91928D9F5F9F73928F90E008958FEF24
:1004E0009FEF0895FC01918D828D981731F0828DD8
:1004F000E80FF11D858D90E008958FEF9FEF08952F
:10050000FC01918D228D892F90E0805C9F4F821B92
:1005100091098F73992708958FE292E00E948002DB
:1005200021E0892B09F420E0822F0895FC01A48D9D
:10053000A80FB92FB11DA35ABF4F2C91848D90E005
:1005400001968F739927848FA689B7892C93A089E8
:10055000B1898C91837080648C93938D848D981372
:1005600006C00288F389E02D80818F7D8083089505
:10057000EF92FF920F931F93CF93DF93EC0181E0F3
:10058000888F9B8D8C8D98131AC0E889F98980819A
:1005900085FF15C09FB7F894EE89FF896083E889CD
:1005A000F98980818370806480839FBF81E090E0BF
:1005B000DF91CF911F910F91FF90EF900895F62E4C
:1005C0000B8D10E00F5F1F4F0F731127E02E8C8DE6
:1005D0008E110CC00FB607FCFACFE889F98980812B
:1005E00085FFF5CFCE010E949602F1CFEB8DEC0F87
:1005F000FD2FF11DE35AFF4FF0829FB7F8940B8F48
:10060000EA89FB8980818062CFCFCF93DF93EC01B1
:10061000888D8823B9F0AA89BB89E889F9898C91EA
:1006200085FD03C0808186FD0DC00FB607FCF7CFA6
:100630008C9185FFF2CF808185FFEDCFCE010E94A6
:100640009602E9CFDF91CF91089580E090E0892B69
:1006500029F00E948C0281110E94000080E090E04D
:10066000892B49F080E090E0892B29F00E9400005E
:1006700081110E94000080E090E0892B49F080E029
:1006800090E0892B29F00E94000081110E94000057
:1006900080E090E0892B49F080E090E0892B29F000
:1006A0000E94000081110C940000089542E050E087
:1006B00062E172E08FE292E00C9422021F920F92AC
:1006C0000FB60F9211242F933F938F939F93AF9365
:1006D000BF938091270290912802A0912902B091A6
:1006E0002A023091260223E0230F2D3758F5019678
:1006F000A11DB11D2093260280932702909328020A
:10070000A0932902B0932A0280912B0290912C028F
:10071000A0912D02B0912E020196A11DB11D8093D2
:100720002B0290932C02A0932D02B0932E02BF9126
:10073000AF919F918F913F912F910F900FBE0F908E
:100740001F90189526E8230F0296A11DB11DD2CF48
:100750001F920F920FB60F9211240BB60F922F9388
:100760003F934F935F936F937F938F939F93AF9339
:10077000BF93EF93FF938FE292E00E949602FF9166
:10078000EF91BF91AF919F918F917F916F915F9109
:100790004F913F912F910F900BBE0F900FBE0F9076
:1007A0001F9018951F920F920FB60F9211240BB63F
:1007B0000F922F938F939F93EF93FF93E0913F02BC
:1007C000F09140028081E0914502F091460282FD65
:1007D0001DC09081809148028F5F8F7320914902E4
:1007E000821741F0E0914802F0E0E15DFD4F958F06
:1007F00080934802FF91EF919F918F912F910F90DD
:100800000BBE0F900FBE0F901F9018958081F2CFF6
:10081000789484B5826084BD84B5816084BD85B5DB
:10082000826085BD85B5816085BD80916E008160E7
:1008300080936E001092810080918100826080938D
:10084000810080918100816080938100809180008F
:100850008160809380008091B10084608093B100BA
:100860008091B00081608093B0008091910082609F
:10087000809391008091910081608093910080919C
:1008800090008160809390008091A10082608093AD
:10089000A1008091A10081608093A1008091A000BF
:1008A00081608093A000809121018260809321016A
:1008B00080912101816080932101809120018160DC
:1008C0008093200180917A00846080937A008091E7
:1008D0007A00826080937A0080917A0081608093B0
:1008E0007A0080917A00806880937A001092C1002B
:1008F000E0913F02F091400282E08083E0913B0270
:10090000F0913C021082E0913D02F0913E028FECAA
:10091000808310924702E0914302F091440286E006
:100920008083E0914102F091420280818061808366
:10093000E0914102F0914202808188608083E091E1
:100940004102F0914202808180688083E0914102FF
:10095000F091420280818F7D8083CEEDD1E0FE0157
:10096000249108E911E0F80184918823C9F090E00E
:10097000880F991FFC01E85BFE4FA591B491FC0123
:10098000E458FE4F459154913FB7F8949C91822FC3
:10099000809598239C93FA019081892380833FBF9F
:1009A000EFEDF1E02491E9E9F1E08491882399F0F9
:1009B00090E0880F991FFC01E85BFE4FA591B49170
:1009C000FC01E458FE4F859194918FB7F894EC9117
:1009D000E22BEC938FBF24E2E22E22E0F22EF7010D
:1009E0008491FE01B490F801D490DD20F9F08111DA
:1009F0000E946801ED2DF0E0EE0FFF1FEE59FE4F53
:100A0000A591B4918C91B82289F060E083E00E94B6
:100A1000CF0149E050E065E172E08FE292E00E9490
:100A200022020E9456030E942503D9CF61E083E091
:100A30000E94CF0146E050E06FE172E08FE292E069
:100A40000E9422020E9456030E94FD012B013C01DC
:100A500080ED882E87E0982EA12CB12C0E94FD01FC
:100A60006419750986099709683E734081059105E7
:100A7000A8F3F1E08F1A9108A108B10828EE420E00
:100A800023E0521E611C711C81149104A104B10465
:100A900029F7A5CFEFE2F2E01382128288EE93E00D
:100AA000A0E0B0E084839583A683B78384E092E0DE
:100AB0009183808385EC90E09587848784EC90E037
:100AC0009787868780EC90E0918B808B81EC90E01B
:100AD000938B828B82EC90E0958B848B86EC90E0FC
:100AE000978B868B118E128E138E148E0895EE0FB7
:100AF000FF1F881F8BBF0790F691E02D1994F89483
:020B0000FFCF25
:100B020000000000B80222024F02050380025E02CA
:100B120072020D0A004465736C696761646F004C70
:060B2200696761646F00C9
:00000001FF
