:100000000C9435010C9466010C9466010C94660105
:100010000C9466010C9466010C9466010C946601C4
:100020000C9466010C9466010C9466010C946601B4
:100030000C9466010C9466010C9466010C946601A4
:100040000C9466010C9466010C9466010C94660194
:100050000C9466010C9466010C9466010C94850462
:100060000C9466010C94F9040C94CF040C94660172
:100070000C9466010C9466010C9466010C94660164
:100080000C9466010C9466010C9466010C94660154
:100090000C9466010C9466010C9466010C94660144
:1000A0000C9466010C9466010C9466010C94660134
:1000B0000C9466010C9466010C9466010C94660124
:1000C0000C9466010C9466010C9466010C94660114
:1000D0000C9466010C9466010C9466010C94660104
:1000E0000C9466010C94AE020C94A5010C9491033F
:1000F0000C94FE020C9498010C94DB020C94A10168
:100100000C94C7010C94C1010C94B3010C94BD0173
:100110000C9494010C9490010C94B9010C94EA0293
:100120000C94AB010C948C010C94AF010C949B01CA
:100130000C94CB010C9437060C940C030C94C60160
:100140000C9486010C944403000021002400270035
:100150002A002D00300033000101000004010701D6
:100160000A0100002200250028002B002E0031008B
:10017000340002010000050108010B01000020000D
:100180002300260029002C002F003200000100006F
:10019000030106010901050505050705080808080A
:1001A000020202020A0A080804040404010101010F
:1001B000010101010303030303030303040707070A
:1001C0000C0C0C0C0C0C0C0C0202020206060606AF
:1001D000060606060B0B0B0B0B0B0B0B010210207C
:1001E000200808102040102040800201020108046D
:1001F0000201010204081020408080402010080401
:100200000201800402018040201008040201080459
:10021000020101020408102040800102040810209D
:10022000408000000A0B02090C0D0E0807030401B0
:1002300000000000000000000000000000000000BE
:10024000000000000000000000000000000012118B
:10025000100000000000000000000000000000008E
:100260000000000000000000370611241FBECFEF81
:10027000D1E2DEBFCDBF00E00CBF12E0A0E0B2E0F3
:10028000E0E2FDE000E00BBF02C007900D92A43257
:10029000B107D9F722E0A4E2B2E001C01D92AC3C64
:1002A000B207E1F711E0C5E3D1E000E006C0219715
:1002B0000109802FFE010E948606C433D10780E029
:1002C0000807A9F70E942F050C948E060C940000D5
:1002D0008150823108F05AC0E82FF0E08827EC58AE
:1002E000FE4F8F4F0C9486069401980186018C0175
:1002F0009001C6019B01A101A501AB01AF01B301B2
:10030000B901BD01C601C101C701CB0180918000C7
:100310008F77809380000895809180008F7DF9CF42
:1003200080918000877FF5CF84B58F7784BD089555
:1003300084B58F7DFBCF8091B0008F778093B00024
:1003400008958091B0008F7DF9CF809190008F77D4
:10035000809390000895809190008F7DF9CF8091D7
:100360009000877FF5CF8091A0008F778093A000C9
:1003700008958091A0008F7DF9CF8091A000877FA4
:10038000F5CF809120018F7780932001089580918F
:1003900020018F7DF9CF80912001877FF5CFCF930A
:1003A000DF93282F30E0F901EE5DFD4F8491F901D4
:1003B000E452FE4FD491F901EA56FE4FC491CC238A
:1003C000A1F081110E946801EC2FF0E0EE0FFF1FF9
:1003D000E458FE4FA591B491EC91ED2381E090E0BB
:1003E00009F480E0DF91CF91089580E090E0FACFAA
:1003F0001F93CF93DF93282F30E0F901EE5DFD4F7F
:100400008491F901E452FE4FD491F901EA56FE4F6E
:10041000C491CC23A9F0162F81110E946801EC2F02
:10042000F0E0EE0FFF1FEE59FE4FA591B4918FB78C
:10043000F894EC91111108C0D095DE23DC938FBFA6
:10044000DF91CF911F910895DE2BF8CFCF93DF93EB
:1004500090E0FC01E452FE4F24918A569E4FFC012D
:1004600084918823D1F090E0880F991FFC01E85B0C
:10047000FE4FA591B491FC01EE59FE4FC591D49168
:1004800061110EC09FB7F8948C91E22FE0958E23F6
:100490008C932881E223E8839FBFDF91CF91089559
:1004A0008FB7F894EC91E22BEC938FBFF6CF3FB768
:1004B000F89480912B0290912C02A0912D02B09182
:1004C0002E0226B5A89B05C02F3F19F00196A11D4D
:1004D000B11D3FBFBA2FA92F982F8827BC01CD018E
:1004E000620F711D811D911D42E0660F771F881FED
:1004F000991F4A95D1F708958F929F92AF92BF921C
:10050000CF92DF92EF92FF924B015C010E94570263
:100510006B017C010E9457026C197D098E099F09AD
:10052000683E734081059105A8F321E0821A910885
:10053000A108B10888EEC80E83E0D81EE11CF11CAA
:1005400081149104A104B10429F7FF90EF90DF908A
:10055000CF90BF90AF909F908F900895AF92BF9231
:10056000CF92DF92EF92FF920F931F93CF93DF937F
:100570006C017B018B01040F151FEB015E01AE18AE
:10058000BF08C017D10759F06991D601ED91FC91D0
:100590000190F081E02DC6011995892B79F7C501ED
:1005A000DF91CF911F910F91FF90EF90DF90CF904F
:1005B000BF90AF900895FC01538D448D252F30E0FE
:1005C000842F90E0821B930B541710F0CF96089560
:1005D00001970895FC01918D828D981761F0A28D8D
:1005E000AE0FBF2FB11D5D968C91928D9F5F9F7353
:1005F000928F90E008958FEF9FEF0895FC01918D09
:10060000828D981731F0828DE80FF11D858D90E075
:1006100008958FEF9FEF0895FC01918D228D892F12
:1006200090E0805C9F4F821B91098F7399270895FA
:100630008FE292E00E940C0321E0892B09F420E074
:10064000822F0895FC01A48DA80FB92FB11DA35AC4
:10065000BF4F2C91848D90E001968F739927848FE2
:10066000A689B7892C93A089B1898C918370806405
:100670008C93938D848D981306C00288F389E02DA6
:1006800080818F7D80830895EF92FF920F931F9357
:10069000CF93DF93EC0181E0888F9B8D8C8D981335
:1006A0001AC0E889F989808185FF15C09FB7F89441
:1006B000EE89FF896083E889F9898081837080648D
:1006C00080839FBF81E090E0DF91CF911F910F91D8
:1006D000FF90EF900895F62E0B8D10E00F5F1F4FE7
:1006E0000F731127E02E8C8D8E110CC00FB607FCF6
:1006F000FACFE889F989808185FFF5CFCE010E9484
:100700002203F1CFEB8DEC0FFD2FF11DE35AFF4FCC
:10071000F0829FB7F8940B8FEA89FB898081806211
:10072000CFCFCF93DF93EC01888D8823B9F0AA89CE
:10073000BB89E889F9898C9185FD03C0808186FD9C
:100740000DC00FB607FCF7CF8C9185FFF2CF8081EB
:1007500085FFEDCFCE010E942203E9CFDF91CF913B
:10076000089580E090E0892B29F00E941803811100
:100770000E94000080E090E0892B49F080E090E04A
:10078000892B29F00E94000081110E94000080E066
:1007900090E0892B49F080E090E0892B29F00E94BD
:1007A000000081110E94000080E090E0892B49F058
:1007B00080E090E0892B29F00E94000081110C94C8
:1007C00000000895FC0101900020E9F73197AF0186
:1007D000481B590BBC018FE292E00C94AE028F9241
:1007E0009F92AF92BF92CF92DF92EF92FF92CF9300
:1007F000DF93CDB7DEB7A1970FB6F894DEBF0FBE7B
:10080000CDBF82E192E00E94E203F12CE12C8091C5
:100810002402909125028E159F0509F058C084E1AD
:1008200092E00E94E2038FEFE81AF80A95E1E916D8
:10083000F10469F788E192E00E94E203C09024028B
:10084000D09025020D2C000CEE08FF08F7FE42C0E8
:100850006DE28FE292E00E94440322273327A90130
:100860002C193D094E095F0919A2FE01B1967F01BD
:100870009AE0892E912CA12CB12CCA01B901A501B5
:1008800094010E946406605DF70162937F01211567
:1008900031054105510589F7E114F10419F0C7014B
:1008A0000E94E20380E292E00E94E203A1960FB66A
:1008B000F894DEBF0FBECDBFDF91CF91FF90EF90D8
:1008C000DF90CF90BF90AF909F908F90089586E17A
:1008D00092E0A7CFA701960119A2CE0181967C01D3
:1008E0008AE0882E912CA12CB12CCA01B901A50156
:1008F00094010E946406605DF70162937F012115F7
:1009000031054105510589F7C7CF1F920F920FB6E8
:100910000F9211242F933F938F939F93AF93BF9385
:100920008091270290912802A0912902B0912A0279
:100930003091260223E0230F2D3758F50196A11D93
:10094000B11D209326028093270290932802A09342
:100950002902B0932A0280912B0290912C02A0913F
:100960002D02B0912E020196A11DB11D80932B0284
:1009700090932C02A0932D02B0932E02BF91AF91C1
:100980009F918F913F912F910F900FBE0F901F90CD
:10099000189526E8230F0296A11DB11DD2CF1F92F4
:1009A0000F920FB60F9211240BB60F922F933F9315
:1009B0004F935F936F937F938F939F93AF93BF9367
:1009C000EF93FF938FE292E00E942203FF91EF9159
:1009D000BF91AF919F918F917F916F915F914F9157
:1009E0003F912F910F900BBE0F900FBE0F901F9055
:1009F00018951F920F920FB60F9211240BB60F92FB
:100A00002F938F939F93EF93FF93E0913F02F09189
:100A100040028081E0914502F091460282FD1DC0B6
:100A20009081809148028F5F8F73209149028217D5
:100A300041F0E0914802F0E0E15DFD4F958F809339
:100A40004802FF91EF919F918F912F910F900BBED4
:100A50000F900FBE0F901F9018958081F2CF789461
:100A600084B5826084BD84B5816084BD85B58260B3
:100A700085BD85B5816085BD80916E008160809364
:100A80006E001092810080918100826080938100CD
:100A900080918100816080938100809180008160DD
:100AA000809380008091B10084608093B100809138
:100AB000B00081608093B00080919100826080934B
:100AC00091008091910081608093910080919000CD
:100AD0008160809390008091A10082608093A1004A
:100AE0008091A10081608093A1008091A00081602D
:100AF0008093A000809121018260809321018091E8
:100B00002101816080932101809120018160809387
:100B1000200180917A00846080937A0080917A002D
:100B2000826080937A0080917A00816080937A005D
:100B300080917A00806880937A001092C100E091E1
:100B40003F02F091400282E08083E0913B02F0910D
:100B50003C021082E0913D02F0913E028FEC8083D6
:100B600010924702E0914302F091440286E08083B4
:100B7000E0914102F0914202808180618083E091A6
:100B80004102F0914202808188608083E0914102BD
:100B9000F0914202808180688083E0914102F0916F
:100BA000420280818F7D808360E084E00E94260283
:100BB00060E086E00E94260261E082E00E94260258
:100BC00061E08CE00E9426020E94EF0384E00E9414
:100BD000CF01892B11F580912402909125021816DE
:100BE0001906DCF40197909325028093240261E0BA
:100BF00082E00E94F80164E670E080E090E00E94EC
:100C00007C0260E082E00E94F8010E94EF0364EF42
:100C100071E080E090E00E947C0286E00E94CF01BB
:100C2000892B11F580912402909125028431910540
:100C3000DCF40196909325028093240261E08CE01D
:100C40000E94F80164E670E080E090E00E947C027F
:100C500060E08CE00E94F8010E94EF0364EF71E015
:100C600080E090E00E947C020E94B103AFCFEFE2EF
:100C7000F2E01382128288EE93E0A0E0B0E0848379
:100C80009583A683B78384E092E09183808385EC8B
:100C900090E09587848784EC90E09787868780EC46
:100CA00090E0918B808B81EC90E0938B828B82EC37
:100CB00090E0958B848B86EC90E0978B868B118EE1
:100CC000128E138E148E0895A1E21A2EAA1BBB1B3E
:100CD000FD010DC0AA1FBB1FEE1FFF1FA217B30708
:100CE000E407F50720F0A21BB30BE40BF50B661F1E
:100CF000771F881F991F1A9469F7609570958095E2
:100D000090959B01AC01BD01CF010895EE0FFF1F2F
:100D1000881F8BBF0790F691E02D1994F894FFCFB0
:100D2000000000004403AE02DB0291030C03EA0260
:100D3000FE025B004F005F005D20506F733A2000A1
:040D40000D0A000098
:00000001FF
